:0300000002089162
:0C089100787FE4F6D8FD758107020800AE
:0E0882007F507EC3EF1FAC0670011E4C70F657
:010890002245
:1008000075A003E5A0640360FAAFA07583008F8232
:1008100075A00CE5A0640C60FAAFA07A00AB07EB02
:100820007E007802CEA2E713CE13D8F8FBAA06E525
:100830008264024583700CEB64024A700675900A6C
:10084000120882E58264014583700CEB64024A70F1
:1008500006759008120882E58264024583700CEBED
:1008600064014A700675900F120882E582640145A2
:1008700083708DEB64014A70877590F012088202D4
:0208800008006E
:00000001FF
