:030000000209A250
:0C09A200787FE4F6D8FD75810E0209553F
:100930008B0C8A0D890EAB0CAA0DA90E1208006053
:1009400013050EE50E7002050D14F9120800FF12D2
:05095000098680E2228F
:100955007F381209947F061209947F011209947F4A
:100965000E1209947F801209947FD27E041208B674
:0209750080FE02
:0408B600AB07AA06DC
:1008BA00D3EB9400EA6480948040317C007D0AAFD7
:1008CA0003AE0212082B8D828C83AE08AF097C001E
:1008DA007D0A120819EF2582F509EE3583F508AF6E
:1008EA0003AE0212082BAA06AB0780C4AF09AE08F2
:0308FA000208FDF4
:1008FD00802AD3E50B9400E50A648094804023AEF2
:10090D000AAF0B7C007D0A12082BED2430FF120973
:10091D0086AE0AAF0B7C007D0A12082B8E0A8F0B58
:03092D0080D02255
:0E0986008FA0D290C291D292120977C2922213
:0E0994008FA0C290C291D292120977C2922215
:0E0977007F887E13EF1FAC0670011E4C70F6D9
:01098500224F
:10080000BB010689828A83E0225002E722BBFE02F6
:09081000E32289828A83E4932229
:10081900EF8DF0A4A8F0CF8CF0A428CE8DF0A42EF3
:02082900FE22AD
:10082B00C2D5EC30E709B2D5E4C39DFDE49CFCEEE8
:10083B0030E715B2D5E4C39FFFE49EFE120861C3F7
:10084B00E49DFDE49CFC800312086130D507C3E4F2
:06085B009FFFE49EFE2257
:10086100BC000BBE0029EF8DF084FFADF022E4CC7B
:10087100F875F008EF2FFFEE33FEEC33FCEE9DEC44
:10088100984005FCEE9DFE0FD5F0E9E4CEFD22ED8A
:10089100F8F5F0EE8420D21CFEADF075F008EF2FD4
:1008A100FFED33FD4007985006D5F0F222C398FDC5
:0508B1000FD5F0EA2262
:00000001FF
