:020000040000FA
:10000000000000EB250000EB2C008FE2000C90E8D4
:1000100000A08AE000B08BE001704AE20B005AE1D8
:100020000000001A1D0000EB0F00BAE818E04FE2D4
:10003000010013E303F0471013FF2FE1F801000064
:10004000080200000030B0E30040B0E30050B0E32D
:100050000060B0E3102052E27800A128FCFFFF8A84
:10006000822EB0E13000A128003081451EFF2FE133
:1000700001C08FE21CFF2FE11FB500F0CDF80598FD
:1000800086460FBC009C02B07047000001C08FE2A2
:100090001CFF2FE130B47546AE4630BC70470000FF
:1000A000330000EB0210A0E1F0FFFFEB1CC09FE566
:1000B0000FC08CE001001CE30DE08F120FE0A001E7
:1000C0001CFF2FE101C08FE21CFF2FE100F082F83E
:1000D000500000007847C04603002DE9EAFFFFEB1F
:1000E0000300BDE8440000EB0C009FE50C109FE509
:1000F00004209FE508309FE51EFF2FE160000040CF
:1001000060040040600000400500A0E34C109FE543
:10011000000081E50100A0E31D1881E20001C1E5B6
:10012000FF00A0E3751941E2080081E50100A0E3AA
:10013000091941E2700081E50500A0E3280081E58E
:100140000100A0E3040081E5030000EA10009FE540
:100150002C0090E50C109FE5000081E5FAFFFFEA16
:1001600000C002E0004000E0008002E070477047FD
:10017000704700000E50A0E1180000EB05E0A0E180
:100180000050B0E10D10A0E10A30A0E10700C0E38B
:1001900000D0A0E160D08DE220402DE9D1FFFFEB3F
:1001A0002040BDE80060A0E30070A0E30080A0E371
:1001B00000B0A0E30710C1E305C0A0E1C009ACE8AE
:1001C000C009ACE8C009ACE8C009ACE801D0A0E1C6
:1001D0001EFF2FE10400C046C0462000FFF77AFF53
:1001E00000009FE51EFF2FE10000004004009FE596
:1001F0001EFF2FE11EFF2FE1040000400C109FE5C1
:100200001800A0E3563412EF1EFF2FE10800000093
:10021000260002001EFF2FE17847C04610402DE95E
:10022000F1FFFFEB0010A0E3001080E51040BDE8F7
:100230001EFF2FE14402000000000040E80400001F
:040240004400000076
:0400000500000000F7
:00000001FF
