:03000000020A00F1
:0C0A0000787FE4F6D8FD75811C02090F18
:0D09F3004142434445464748494A4B4C00A9
:100960008B1A8A1B891CAB1AAA1BA91C1208F6FF3A
:100970006017F5993099FDC2991209C87401251CB8
:0A098000F51CE4351BF51B80DD2299
:10098A008B178A188919AB17AA18A9191208F660C1
:10099A00130519E5197002051814F91208F6FF1261
:0509AA0009D780E222E4
:10090F0078087C007D007BFF7A0979F37E007F0DEC
:10091F001208D01209AF758920758DFDD28E75988A
:10092F0050E4F515F5163098FD74082516F8A699BC
:10093F00C2980516E51670020515640C451570E68C
:10094F0074082516F8E4F6FB7A00790812098A80F4
:01095F00D0C7
:1009AF007F381209E57F061209E57F011209E57FFD
:0909BF000E1209E57F800209E532
:0E09D7008FA0D290C291D2921209C8C2922271
:0E09E5008FA0C290C291D2921209C8C2922273
:0E09C8007F887E13EF1FAC0670011E4C70F688
:0109D60022FE
:10080000E709F608DFFA8046E709F208DFFA803EDA
:1008100088828C83E709F0A3DFFA8032E309F608C7
:10082000DFFA8078E309F208DFFA807088828C832F
:10083000E309F0A3DFFA806489828A83E0A3F608E3
:10084000DFFA805889828A83E0A3F208DFFA804CBD
:1008500080D280FA80C680D4806980F28033801094
:1008600080A680EA809A80A880DA80E280CA8033FD
:1008700089828A83ECFAE493A3C8C582C8CCC58375
:10088000CCF0A3C8C582C8CCC583CCDFE9DEE78045
:100890000D89828A83E493A3F608DFF9ECFAA9F0C4
:1008A000EDFB2289828A83ECFAE0A3C8C582C8CC1A
:1008B000C583CCF0A3C8C582C8CCC583CCDFEADE33
:1008C000E880DB89828A83E493A3F208DFF980CC95
:1008D00088F0EF60010E4E60C388F0ED2402B4048E
:1008E0000050B9F582EB2402B4040050AF23234535
:0608F00082239008507302
:1008F600BB010689828A83E0225002E722BBFE0200
:09090600E32289828A83E4932232
:00000001FF
