:03000000020922D0
:0C092200787FE4F6D8FD75810702092EED
:06092E001208E8020800B7
:0F08E8007F381209147F0E1209147FC002091401
:0E0906008FA0D292C293D2941208F7C294220C
:0E0914008FA0C292C293D2941208F7C294220E
:100800007F40120914E4FF1209067F041209067FD3
:100810000A1209067F111209067F1F1209067F11AD
:100820001209067F11120906E4FF1209067F8012E1
:100830000914E4FF1209061208F77F48120914E4AC
:10084000FF1209067F1B1209067F1B1209067F157E
:100850001209067F111209067F111209067F111273
:100860000906E4FF1209067F811209147F011209AB
:10087000061208F77F50120914E4FF1209067F1FC1
:100880001209067F041209067F041209067F04126A
:1008900009067F041209067F1F120906E4FF1209E8
:1008A000067F821209147F021209061208F77F6878
:1008B000120914E4FF1209067F1F1209067F0412B1
:1008C00009067F041209067F041209067F04120933
:1008D000067F04120906E4FF1209067F8312091439
:0808E0007F051209060208F76A
:0E08F7007F887E13EF1FAC0670011E4C70F65A
:0109050022CF
:00000001FF
