:0300000002096191
:0C096100787FE4F6D8FD75810C020800D8
:10083700464F52574152442020202020004C454625
:1008470054202020202020202000524947485420AF
:100857002020202020200052455645525345202075
:04086700202020002D
:100892008B0A8A0B890CAB0AAA0BA90C12091D60E0
:1008A20013050CE50C7002050B14F912091DFF1259
:0508B200094580E2226F
:100800007F381209537F061209537F011209537F63
:100810000E1209537F801209537F017E001208B720
:100820007F027E001208D97F037E0012086B7F04CE
:070830007E001208FB80E2CC
:1008B7008E088F0920900C2091097BFF7A087937E1
:1008C700120892209004D2B0C2B1209104D2B2C2D1
:0208D700B3224A
:1008D9008E088F0920900C3091097BFF7A087944A2
:1008E900120892209004D2B0C2B1309104C2B2D29F
:0208F900B32228
:10086B008E088F0930900C2091097BFF7A08795103
:10087B001208927F01120953309004C2B0D2B120FA
:07088B009104D2B2C2B322B6
:1008FB008E088F0930900C3091097BFF7A08795E56
:10090B00120892309004C2B0D2B1309104C2B2D26C
:02091B00B32205
:0E0945008FA0D292C293D294120936C294228D
:0E0953008FA0C292C293D294120936C294228F
:0E0936007F207EA1EF1FAC0670011E4C70F6F4
:010944002290
:10091D00BB010689828A83E0225002E722BBFE02D8
:09092D00E32289828A83E493220B
:00000001FF
