:030000000209FBF7
:0C09FB00787FE4F6D8FD75810D0208B687
:040A0700202020008B
:0609A5007BFF7A0A7907CE
:1009AB008B0A8A0B890CAB0AAA0BA90C12080060E4
:1009BB0013050CE50C7002050B14F9120800FF125D
:0509CB0009DF80E222BB
:1008B600E4F508F5097F381209ED7F061209ED7F88
:1008C600011209ED7F0E1209ED7F801209EDC3E5D5
:1008D600099414E508648094804004D2B0C2B1C380
:1008E600E5099414E508648094805004C2B0C2B14E
:1008F6007F011209ED2090130509E509700205082C
:10090600FFAE081209281209A580C32091C0E50987
:10091600150970021508AF09AE081209281209A5B3
:0209260080ACA3
:04092800AB07AA0669
:10092C00900000D3EB9400EA6480948040317C000A
:10093C007D0AAF03AE0212082B8C0A8D0B7C007D56
:10094C000AAF82AE83120819E50B2FF582E50A3E39
:10095C00F583AF03AE0212082BAA06AB0780C4AF17
:06096C0082AE8302097255
:10097200802AD3E50D9400E50C648094804023AE78
:100982000CAF0D7C007D0A12082BED2430FF1209FA
:10099200DFAE0CAF0D7C007D0A12082B8E0C8F0D82
:0309A20080D022E0
:0E09DF008FA0D292C293D2941209D0C2942259
:0E09ED008FA0C292C293D2941209D0C294225B
:0E09D0007F887E13EF1FAC0670011E4C70F680
:0109DE0022F6
:10080000BB010689828A83E0225002E722BBFE02F6
:09081000E32289828A83E4932229
:10081900EF8DF0A4A8F0CF8CF0A428CE8DF0A42EF3
:02082900FE22AD
:10082B00C2D5EC30E709B2D5E4C39DFDE49CFCEEE8
:10083B0030E715B2D5E4C39FFFE49EFE120861C3F7
:10084B00E49DFDE49CFC800312086130D507C3E4F2
:06085B009FFFE49EFE2257
:10086100BC000BBE0029EF8DF084FFADF022E4CC7B
:10087100F875F008EF2FFFEE33FEEC33FCEE9DEC44
:10088100984005FCEE9DFE0FD5F0E9E4CEFD22ED8A
:10089100F8F5F0EE8420D21CFEADF075F008EF2FD4
:1008A100FFED33FD4007985006D5F0F222C398FDC5
:0508B1000FD5F0EA2262
:00000001FF
