:03000000020D8965
:0C0D8900787FE4F6D8FD758143020BEA88
:100D20002020200054686520726F6F6D2069732049
:080D300066756C6C002564007F
:060CCE007BFF7A0D792086
:100CD4008B308A318932AB30AA31A932120B5C6075
:100CE400130532E5327002053114F9120B5CFF1260
:050CF4000D6D80E222FD
:100BEA00E4F522F5237F38120D7B7F06120D7B7FF9
:100BFA0001120D7B7F0E120D7B7F80120D7B120D71
:100C0A003820932EC3E5239414E52264809480400F
:100C1A00067522007523147F80120D7B0523E523B8
:100C2A0070020522FFAE22120C6E120CCE2093D156
:100C3A0080FB2094CCC3E5239414E522648094803D
:100C4A0040067522007523147F80120D7BE523155B
:100C5A002370021522AF23AE22120C6E120CCE2084
:040C6A00949F80FBD8
:100D3800758920758DFDD28E7598508F993099FDE3
:030D4800C299222B
:100D4B00120B5CFF600C120D38740129F9E43AFAAE
:030D5B0080EE2205
:0E0D6D008FA0D290C291D292120D5EC292223D
:0E0D7B008FA0C290C291D292120D5EC292223F
:040C6E008E248F251C
:100C7200C3E5259414E52464809480400F7BFF7AB9
:100C82000D7924120D4B752400752514C3E52594A6
:100C920014E524648094805012D296C297120D5E9D
:100CA200C296D297120D5EC296C2977533FF753403
:100CB2000D7535358524368525377B007A007926F2
:0C0CC20012085C7B007A007926020CD43A
:0E0D5E007F887E13EF1FAC0670011E4C70F6EE
:010D6C002264
:100B5C00BB010689828A83E0225002E722BBFE0297
:090B6C00E32289828A83E49322CA
:10080000E53F2433F8E6053F22783030070278339D
:10081000E475F001120BB4020B5C2000EB7F2ED2CA
:10082000008018EF540F2490D43440D4FF30040BD0
:10083000EF24BFB41A0050032461FFE540600215A5
:10084000400543E5437002054230070D7830E475FA
:10085000F001120BB4EF020BA2020CF97403D207E1
:100860008003E4C207F53F8B308A318932E4F540DA
:10087000F542F543E54060077F2012083B80F5759F
:1008800041FFC201C200C202C203C205C206C208C1
:10089000120809FF700D3007057F0012084CAF43A6
:1008A000AE4222B4255FC2D5C204120809FF24D08B
:1008B000B40A00501A75F00A784030D50508B6FF22
:1008C0000106C6A426F620D5047002D20380D924DE
:1008D000CFB41A00EF5004C2E5D204020A4CD20190
:1008E00080C6D20080C0D20280BCD2D580BAD205E8
:1008F00080B47F2012083B2002077401B5400040FD
:10090000F1120800FF12083B020874D208D20680D8
:1009100095120800FB120800FA120800F94A4B7001
:1009200006791D7A0B7BFF20022EE540602A7E00AF
:100930008E82758300120B7560060EEE654170F0B5
:10094000C2D5EBC0E0EAC0E0E9C0E0EE120A93D005
:10095000E0F9D0E0FAD0E0FB120B5CFF60AAEBC03C
:10096000E0EAC0E0E9C0E012083BD0E02401F9D0A1
:10097000E03400FAD0E0FBE5410460DCD541D980E9
:10098000877BFF7A0A798FD202809C791080027966
:1009900008C206C2088008D2D5790A8004790AC242
:1009A000D5E541047002F541E4FAFDFEFF120800AE
:1009B000FC7B08200113120800FD7B1030000A1296
:1009C0000800FE120800FF7B20EC3382D592D55040
:1009D00013C3E43000069FFFE49EFEE42001039D64
:1009E000FDE49CFCE4CBF8C201EC700CCFCECDCC86
:1009F000E824F8F870F38017C3EF33FFEE33FEED11
:100A000033FDEC33FCEB33FB994002FB0FD8E9EBF1
:100A1000300105F8D0E0C448B201C0E00AEC4D4E08
:100A20004F78207B0070C2EAB5410040BCC0E012A4
:100A30000A95D0F0D0E0200104C4C0E0C4B201C0E7
:100A4000F0120824D0F0D5F0EB020874120BC409A0
:100A50001153098B5808E24C08DE42098F4F099761
:0F0A60004409974908F743099D550981460981C3
:100A6F00450981470B3D5008E62D08EA2E090D2B4D
:100A7F0008EE23090B200B262A08A64800000905BB
:100A8F003F3F3F00790AA2D5200314300509B91062
:100A9F00020404B9080104A2D52006025001042063
:100AAF0002689202B540005034C0E07F2030031935
:100ABF007F30A20272067205500F120AECC202C2F8
:100ACF0006C205C2087F30800F300503E9C0E0126F
:100ADF00083B300503D0E0F9D0E0B540CC30051726
:100AEF007F30B9100C12083B7F583004077F788095
:100AFF0003B9080312083B3002057F2D02083B7F24
:100B0F00202008F87F2B2006F322920280CF286E38
:100B1F00756C6C2900D2011208003001F8C20178FF
:100B2F004030D50108F60208A62D50434958120847
:100B3F00002403B405004001E4900B389312082CF5
:0D0B4F00743A12082CD20375400402098B81
:100B7500BB010CE58229F582E5833AF583E0225035
:100B850006E92582F8E622BBFE06E92582F8E2227F
:0D0B9500E58229F582E5833AF583E4932299
:100BA200BB010689828A83F0225002F722BBFE0132
:020BB200F3222C
:100BB400FAE6FB0808E6F925F0F618E6CA3AF62242
:100BC400D083D082F8E4937012740193700DA3A3C0
:100BD40093F8740193F5828883E4737402936860D4
:060BE400EFA3A3A380DFD4
:100CF900EFB40A07740D120D04740A309811A899FB
:100D0900B8130CC2983098FDA899C298B811F6305A
:070D190099FDC299F5992232
:00000001FF
