:030000000209EA08
:0C09EA00787FE4F6D8FD75810D0208B698
:0409F600202020009D
:060994007BFF7A0979F6F1
:10099A008B0A8A0B890CAB0AAA0BA90C12080060F5
:1009AA0013050CE50C7002050B14F9120800FF126E
:0509BA0009CE80E222DD
:1008B600E4F508F5097F381209DC7F061209DC7FAA
:1008C600011209DC7F0E1209DC7F801209DCC3E508
:1008D600099414E508648094804004D2B0C2B17FC4
:1008E600801209DC2090130509E50970020508FF4E
:1008F600AE0812091712099480D42091D1E5091582
:100906000970021508AF09AE08120917120994807A
:01091600BD23
:04091700AB07AA067A
:10091B00900000D3EB9400EA6480948040317C001B
:10092B007D0AAF03AE0212082B8C0A8D0B7C007D67
:10093B000AAF82AE83120819E50B2FF582E50A3E4A
:10094B00F583AF03AE0212082BAA06AB0780C4AF28
:06095B0082AE8302096177
:10096100802AD3E50D9400E50C648094804023AE89
:100971000CAF0D7C007D0A12082BED2430FF12090B
:10098100CEAE0CAF0D7C007D0A12082B8E0C8F0DA4
:0309910080D022F1
:0E09CE008FA0D292C293D2941209BFC294227B
:0E09DC008FA0C292C293D2941209BFC294227D
:0E09BF007F887E13EF1FAC0670011E4C70F691
:0109CD002207
:10080000BB010689828A83E0225002E722BBFE02F6
:09081000E32289828A83E4932229
:10081900EF8DF0A4A8F0CF8CF0A428CE8DF0A42EF3
:02082900FE22AD
:10082B00C2D5EC30E709B2D5E4C39DFDE49CFCEEE8
:10083B0030E715B2D5E4C39FFFE49EFE120861C3F7
:10084B00E49DFDE49CFC800312086130D507C3E4F2
:06085B009FFFE49EFE2257
:10086100BC000BBE0029EF8DF084FFADF022E4CC7B
:10087100F875F008EF2FFFEE33FEEC33FCEE9DEC44
:10088100984005FCEE9DFE0FD5F0E9E4CEFD22ED8A
:10089100F8F5F0EE8420D21CFEADF075F008EF2FD4
:1008A100FFED33FD4007985006D5F0F222C398FDC5
:0508B1000FD5F0EA2262
:00000001FF
