:03000000020CC52A
:0C0CC500787FE4F6D8FD758114020C4F16
:100C75008B128A138914AB12AA13A914120ABD6028
:100C8500130514E5147002051314F9120ABDFF12B9
:050C95000CA980E22221
:100C4F007F38120CB77F06120CB77F01120CB77FDB
:100C5F000E120CB77F80120CB77FC17ECA7D917CBC
:060C6F0040120B8180FE23
:080B81008F0B8E0A8D098C0810
:100B8900120A3CAD07AC06EC120A03A804A905AA8F
:100B990006AB07AF0BAE0AAD09AC08120803E4FBBC
:100BA900FA797A78441208F8120A3C8E0C8F0DAF44
:100BB9000BAE0AAD09AC08120A3C120BD27F2E12F9
:090BC9000CA9AF0DAE0C020BD219
:040BD200AB07AA06BD
:100BD600900000D3EB9400EA6480948040317C005E
:100BE6007D0AAF03AE02120AE88C0E8D0F7C007DE3
:100BF6000AAF82AE83120AD6E50F2FF582E50E3EC6
:100C0600F583AF03AE02120AE8AA06AB0780C4AFAB
:060C160082AE83020C1CFB
:100C1C00802AD3E5119400E510648094804023AEC3
:100C2C0010AF117C007D0A120AE8ED2430FF120C83
:100C3C00A9AE10AF117C007D0A120AE88E108F113C
:030C4C0080D02233
:0E0CA9008FA0D290C291D292120C9AC29222C7
:0E0CB7008FA0C290C291D292120C9AC29222C9
:0E0C9A007F887E13EF1FAC0670011E4C70F6B3
:010CA8002229
:10080000020AA8E86480F8E933E83360110460F074
:10081000ED33EC337009E8FCE9FDEAFEEBFF22045E
:1008200060DED3EB9FEA9EE99DE8C2E78CF0C2F759
:1008300095F0400CE8CCF8E9CDF9EACEFAEBCFFB25
:10084000120A7385D0F05804700320D5B3E8047001
:10085000075002B2D5020AB292D5EC0460F7E4CC9C
:10086000C0E0C398F8603B94186008400DD0E0FBEE
:10087000020A8AE4FBFAC9FC8028E830E406E4C9ED
:10088000FBE4CAFCE830E305E4C9CACBFCE8540742
:100890006010F8C3E913F9EA13FAEB13FBEC13FC4D
:1008A000D8F130F52FC3E49CFCEF9BFFEE9AFEEDF0
:1008B00099FDD0E0FBEF4E4D4C701222DB03020A93
:1008C000AFEC2CFCEF33FFEE33FEED33FDED30E704
:1008D000EB020A8AEF2BFFEE3AFEED39FDD0E0FB8A
:1008E00050130BBB0003020AB2ED13FDEE13FEEF33
:0808F00013FFEC13FC020A8A5D
:1008F800EC4D6011E8497017ED33EC3304600DE4FA
:10090800FCFFFEFD22E933E8330470F8020AA8125E
:100918000A7358046009E4CC24815006285009025F
:100928000AB2284003020AAFC0E0EB4A7044B9801B
:1009380006D0E0FB020A9EEF4E701CBD8008EBFF5C
:10094800EAFEE9FD80EBE98DF0A4FEE5F00209E19D
:10095800E9CDF9EAFEEBFFEF89F0A4FCE5F0CE89DA
:10096800F0A42EFFE435F0CD89F0A42DFEE435F097
:100978008067EF4E7005BD80D780C3EF8BF0A4ACC5
:10098800F0EE8BF0A42CFCE435F0F8EF8AF0A42C00
:10099800E5F038FCE433CB8DF0A42CFCE5F03BF813
:1009A800EE8AF0A42CFCE5F038F8E433CF89F0A403
:1009B8002CFCE5F038CF3400CE89F0A42FFFE5F009
:1009C8003EFEE433C98DF0A42EFEE5F039CD8AF061
:1009D800A42FFFE5F03EFEE43DFD33D0E0FB5007D9
:1009E8000BBB000F020AB2EC2CFCEF33FFEE33FE18
:0609F800ED33FD020A8A46
:1009FE0075F020800E75F010800575F0087D007E74
:100A0E00007F003392D530D503120B1EEC3340100D
:100A1E00EF33FFEE33FEED33FDEC33FCD5F0ED227C
:0E0A2E00E5F0247EA2D513CC92E7CDCEFF22B8
:100A3C00EDD2E7CD33EC3392D524814006E4FFFEB2
:100A4C00FDFC22FCE4CFCECDCC24E0501174FF8011
:100A5C00EDC3CC13CCCD13CDCE13CECF13CF0470AE
:070A6C00F030D5DE020B1E85
:100A7300E9D2E7C933E833F892D5EDD2E7CD33ECC9
:070A830033FC5002B2D52242
:100A8A00EC30E7100FBF000C0EBE00080DBD0004CD
:100A9A000BEB6014A2D5EB13FCED92E7FD2274FF79
:100AAA00FCFDFEFF22E480F8A2D574FF13FC7D80D2
:030ABA00E480EFE6
:100ABD00BB010689828A83E0225002E722BBFE0237
:090ACD00E32289828A83E493226A
:100AD600EF8DF0A4A8F0CF8CF0A428CE8DF0A42E34
:020AE600FE22EE
:100AE800C2D5EC30E709B2D5E4C39DFDE49CFCEE29
:100AF80030E715B2D5E4C39FFFE49EFE120B2CC36A
:100B0800E49DFDE49CFC8003120B2C30D507C3E464
:060B18009FFFE49EFE2297
:0E0B1E00C3E49FFFE49EFEE49DFDE49CFC22E8
:100B2C00BC000BBE0029EF8DF084FFADF022E4CCAD
:100B3C00F875F008EF2FFFEE33FEEC33FCEE9DEC76
:100B4C00984005FCEE9DFE0FD5F0E9E4CEFD22EDBC
:100B5C00F8F5F0EE8420D21CFEADF075F008EF2F06
:100B6C00FFED33FD4007985006D5F0F222C398FDF7
:050B7C000FD5F0EA2294
:00000001FF
