:0300000002087281
:0C087200787FE4F6D8FD75810D020800C7
:10080000E4F508F509F50AF50BF50C750D08E4F5A6
:1008100008F509C3E509950DE50C6480F8E5086461
:100820008098501E120863AF097401A8070880025F
:10083000C333D8FC450BF5A00509E50970D50508BB
:1008400080D1AFA0750A008F0BE50D150D70021554
:100850000CE50BF4450A70B6F50AF50BF50C750DB1
:030860000880AB62
:0E0863007F507EC3EF1FAC0670011E4C70F676
:010871002264
:00000001FF
