:03000000020AE50C
:0C0AE500787FE4F6D8FD758154020A69A0
:100A00002050616E6B616A0020474155524156008B
:100A10002056494D414C0020414D41520020594F34
:100A20005520415245204E4F5420415554484F5275
:100A3000495A45440031323334353637383930314C
:100A400031003132333435363738393031320031D4
:100A5000323334353637383930313300313233348C
:090A6000353637383930313400E5
:0E0AD6007F057E00EF1FAC0670011E4C70F60F
:010AE40022EF
:080AF1003098FDC298AF992274
:080AF9008F993099FDC299228A
:100AB1008B528A538954AB52AA53A9541208F66037
:100AC100130554E5547002055314F91208F6FF1288
:050AD1000AF980E22299
:06093C008B178A188919CF
:10094200781A7C007D007BFF7A0A79357E007F343D
:100952001208D0E4F54EF54FF550F551F550F5512A
:10096200E4F54EF54FAB17AA18A919854F82854EAB
:100972008312090FFFE55175F00DA4241A254FF8D3
:10098200E6B50717C3E54F940DE54E648094805099
:100992000A054FE54F70CE054E80CAE54F640D45FE
:1009A2004E600E0551E551700205506404455070C9
:1009B200AFE54F154F7002154EE54F640C454E7072
:1009C20033E5507038E55114601214601714601C3E
:1009D200240370297BFF7A0A7900801E7BFF7A0A42
:1009E200790880167BFF7A0A7910800E7BFF7A0ADB
:0D09F200791780067BFF7A0A791D120AB181
:0109FF0022D5
:100A6900E4F508F509758920758DFDD28E759850C4
:100A79007F61120AF9E4F508F509120AF1740A25E9
:100A890009F8A6070509E50970020508C3940CE5EC
:100A9900086480948040E3740A2509F8E4F6FB7A37
:080AA90000790A12093C80CD1E
:10080000E709F608DFFA8046E709F208DFFA803EDA
:1008100088828C83E709F0A3DFFA8032E309F608C7
:10082000DFFA8078E309F208DFFA807088828C832F
:10083000E309F0A3DFFA806489828A83E0A3F608E3
:10084000DFFA805889828A83E0A3F208DFFA804CBD
:1008500080D280FA80C680D4806980F28033801094
:1008600080A680EA809A80A880DA80E280CA8033FD
:1008700089828A83ECFAE493A3C8C582C8CCC58375
:10088000CCF0A3C8C582C8CCC583CCDFE9DEE78045
:100890000D89828A83E493A3F608DFF9ECFAA9F0C4
:1008A000EDFB2289828A83ECFAE0A3C8C582C8CC1A
:1008B000C583CCF0A3C8C582C8CCC583CCDFEADE33
:1008C000E880DB89828A83E493A3F208DFF980CC95
:1008D00088F0EF60010E4E60C388F0ED2402B4048E
:1008E0000050B9F582EB2402B4040050AF23234535
:0608F00082239008507302
:1008F600BB010689828A83E0225002E722BBFE0200
:09090600E32289828A83E4932232
:10090F00BB010CE58229F582E5833AF583E022509D
:10091F0006E92582F8E622BBFE06E92582F8E222E7
:0D092F00E58229F582E5833AF583E4932201
:00000001FF
