:03000000020A1DD4
:0C0A1D00787FE4F6D8FD75811102098194
:0A0A29003F065B4F666D7D077F6F8F
:0E0A0E007F887E13EF1FAC0670011E4C70F641
:010A1C0022B7
:1009810078087C007D007BFF7A0A79297E007F0A46
:100991001208D01209F3AB077A00309813AF99AB64
:1009A10007C2987C007D647E001208F6AA04AB059C
:1009B1007C007D0AAF03AE021208F674082FF8E638
:1009C100F5A0C290D291D292E4F5A0FC7D0AAF03CA
:1009D100AE021208F674082DF8E6FFF5A0D290C217
:1009E10091D292E4F5A08FA0D290D291C292F5A0BB
:0209F10080A8DC
:1009F300758920758DFDD28E759850759941309902
:0B0A0300FDC2993098FDC298AF992207
:10080000E709F608DFFA8046E709F208DFFA803EDA
:1008100088828C83E709F0A3DFFA8032E309F608C7
:10082000DFFA8078E309F208DFFA807088828C832F
:10083000E309F0A3DFFA806489828A83E0A3F608E3
:10084000DFFA805889828A83E0A3F208DFFA804CBD
:1008500080D280FA80C680D4806980F28033801094
:1008600080A680EA809A80A880DA80E280CA8033FD
:1008700089828A83ECFAE493A3C8C582C8CCC58375
:10088000CCF0A3C8C582C8CCC583CCDFE9DEE78045
:100890000D89828A83E493A3F608DFF9ECFAA9F0C4
:1008A000EDFB2289828A83ECFAE0A3C8C582C8CC1A
:1008B000C583CCF0A3C8C582C8CCC583CCDFEADE33
:1008C000E880DB89828A83E493A3F208DFF980CC95
:1008D00088F0EF60010E4E60C388F0ED2402B4048E
:1008E0000050B9F582EB2402B4040050AF23234535
:0608F00082239008507302
:1008F600C2D5EC30E709B2D5E4C39DFDE49CFCEE1D
:1009060030E715B2D5E4C39FFFE49EFE12092CC35F
:10091600E49DFDE49CFC800312092C30D507C3E45A
:060926009FFFE49EFE228B
:10092C00BC000BBE0029EF8DF084FFADF022E4CCAF
:10093C00F875F008EF2FFFEE33FEEC33FCEE9DEC78
:10094C00984005FCEE9DFE0FD5F0E9E4CEFD22EDBE
:10095C00F8F5F0EE8420D21CFEADF075F008EF2F08
:10096C00FFED33FD4007985006D5F0F222C398FDF9
:05097C000FD5F0EA2296
:00000001FF
