:03000000020A2AC7
:0C0A2A00787FE4F6D8FD75811502098183
:0A0A36003F065B4F666D7D077F678A
:1009810078087C007D007BFF7A0A79367E007F0A39
:100991001208D0E4F512F513F514F515F5A020931E
:1009A1000BE5131513700215123093FD20940B05FE
:1009B10013E513700205123094FDD3E5139463E53A
:1009C10012648094804005E4F512F513C3E51264C6
:1009D1008094805006751200751363851214851377
:1009E10015C290D291AE14AF157C007D0A1208F6A3
:1009F10074082FF8E6F5A0120A1BE4F5A0D290C204
:100A010091AE14AF15FC7D0A1208F674082DF8E6B4
:0A0A1100F5A0120A1BE4F5A0808492
:0E0A1B007F327E00EF1FAC0670011E4C70F69D
:010A290022AA
:10080000E709F608DFFA8046E709F208DFFA803EDA
:1008100088828C83E709F0A3DFFA8032E309F608C7
:10082000DFFA8078E309F208DFFA807088828C832F
:10083000E309F0A3DFFA806489828A83E0A3F608E3
:10084000DFFA805889828A83E0A3F208DFFA804CBD
:1008500080D280FA80C680D4806980F28033801094
:1008600080A680EA809A80A880DA80E280CA8033FD
:1008700089828A83ECFAE493A3C8C582C8CCC58375
:10088000CCF0A3C8C582C8CCC583CCDFE9DEE78045
:100890000D89828A83E493A3F608DFF9ECFAA9F0C4
:1008A000EDFB2289828A83ECFAE0A3C8C582C8CC1A
:1008B000C583CCF0A3C8C582C8CCC583CCDFEADE33
:1008C000E880DB89828A83E493A3F208DFF980CC95
:1008D00088F0EF60010E4E60C388F0ED2402B4048E
:1008E0000050B9F582EB2402B4040050AF23234535
:0608F00082239008507302
:1008F600C2D5EC30E709B2D5E4C39DFDE49CFCEE1D
:1009060030E715B2D5E4C39FFFE49EFE12092CC35F
:10091600E49DFDE49CFC800312092C30D507C3E45A
:060926009FFFE49EFE228B
:10092C00BC000BBE0029EF8DF084FFADF022E4CCAF
:10093C00F875F008EF2FFFEE33FEEC33FCEE9DEC78
:10094C00984005FCEE9DFE0FD5F0E9E4CEFD22EDBE
:10095C00F8F5F0EE8420D21CFEADF075F008EF2F08
:10096C00FFED33FD4007985006D5F0F222C398FDF9
:05097C000FD5F0EA2296
:00000001FF
