:03000000020CC42B
:0C0CC400787FE4F6D8FD758141020BEA50
:030CD00025640098
:100C3C008B2E8A2F8930AB2EAA2FA930120B5C6019
:100C4C00130530E5307002052F14F9120B5CFF12FE
:050C5C000CA880E2225B
:100BEA00752200752301120C80758905D28CAF8C91
:100BFA00EFFEAD8A7C00E42DF523EC3EF522AF230F
:0B0C0A00FE120C617F80120CB680E32C
:100C80007F38120CB67F06120CB67F01120CB67FAD
:090C90000E120CB67F80020CB6B6
:100C61007531FF75320C7533D08E348F357B007A38
:0F0C710000792412085C7B007A007924020C3C85
:0E0CA8008FA0D290C291D292120C99C29222C9
:0E0CB6008FA0C290C291D292120C99C29222CB
:0E0C99007F307E75EF1FAC0670011E4C70F6AA
:010CA700222A
:100B5C00BB010689828A83E0225002E722BBFE0297
:090B6C00E32289828A83E49322CA
:10080000E53D2431F8E6053D22782E3007027831A7
:10081000E475F001120BB4020B5C2000EB7F2ED2CA
:10082000008018EF540F2490D43440D4FF30040BD0
:10083000EF24BFB41A0050032461FFE53E600215A7
:100840003E0541E5417002054030070D782EE47504
:10085000F001120BB4EF020BA2020C157403D207C5
:100860008003E4C207F53D8B2E8A2F8930E4F53EE4
:10087000F540F541E53E60077F2012083B80F575A5
:100880003FFFC201C200C202C203C205C206C208C3
:10089000120809FF700D3007057F0012084CAF41A8
:1008A000AE4022B4255FC2D5C204120809FF24D08D
:1008B000B40A00501A75F00A783E30D50508B6FF24
:1008C0000106C6A426F620D5047002D20380D924DE
:1008D000CFB41A00EF5004C2E5D204020A4CD20190
:1008E00080C6D20080C0D20280BCD2D580BAD205E8
:1008F00080B47F2012083B2002077401B53E0040FF
:10090000F1120800FF12083B020874D208D20680D8
:1009100095120800FB120800FA120800F94A4B7001
:1009200006791D7A0B7BFF20022EE53E602A7E00B1
:100930008E82758300120B7560060EEE653F70F0B7
:10094000C2D5EBC0E0EAC0E0E9C0E0EE120A93D005
:10095000E0F9D0E0FAD0E0FB120B5CFF60AAEBC03C
:10096000E0EAC0E0E9C0E012083BD0E02401F9D0A1
:10097000E03400FAD0E0FBE53F0460DCD53FD980ED
:10098000877BFF7A0A798FD202809C791080027966
:1009900008C206C2088008D2D5790A8004790AC242
:1009A000D5E53F047002F53FE4FAFDFEFF120800B2
:1009B000FC7B08200113120800FD7B1030000A1296
:1009C0000800FE120800FF7B20EC3382D592D55040
:1009D00013C3E43000069FFFE49EFEE42001039D64
:1009E000FDE49CFCE4CBF8C201EC700CCFCECDCC86
:1009F000E824F8F870F38017C3EF33FFEE33FEED11
:100A000033FDEC33FCEB33FB994002FB0FD8E9EBF1
:100A1000300105F8D0E0C448B201C0E00AEC4D4E08
:100A20004F78207B0070C2EAB53F0040BCC0E012A6
:100A30000A95D0F0D0E0200104C4C0E0C4B201C0E7
:100A4000F0120824D0F0D5F0EB020874120BC409A0
:100A50001153098B5808E24C08DE42098F4F099761
:0F0A60004409974908F743099D550981460981C3
:100A6F00450981470B3D5008E62D08EA2E090D2B4D
:100A7F0008EE23090B200B262A08A64800000905BB
:100A8F003F3F3F00790AA2D5200314300509B91062
:100A9F00020404B9080104A2D52006025001042063
:100AAF0002689202B53E005034C0E07F2030031937
:100ABF007F30A20272067205500F120AECC202C2F8
:100ACF0006C205C2087F30800F300503E9C0E0126F
:100ADF00083B300503D0E0F9D0E0B53ECC30051728
:100AEF007F30B9100C12083B7F583004077F788095
:100AFF0003B9080312083B3002057F2D02083B7F24
:100B0F00202008F87F2B2006F322920280CF286E38
:100B1F00756C6C2900D2011208003001F8C20178FF
:100B2F003E30D50108F60208A62D50434958120849
:100B3F00002403B405004001E4900B389312082CF5
:0D0B4F00743A12082CD203753E0402098B83
:100B7500BB010CE58229F582E5833AF583E0225035
:100B850006E92582F8E622BBFE06E92582F8E2227F
:0D0B9500E58229F582E5833AF583E4932299
:100BA200BB010689828A83F0225002F722BBFE0132
:020BB200F3222C
:100BB400FAE6FB0808E6F925F0F618E6CA3AF62242
:100BC400D083D082F8E4937012740193700DA3A3C0
:100BD40093F8740193F5828883E4737402936860D4
:060BE400EFA3A3A380DFD4
:100C1500EFB40A07740D120C20740A309811A899C4
:100C2500B8130CC2983098FDA899C298B811F6303F
:070C350099FDC299F5992217
:00000001FF
