:0300000002091ED4
:0C091E00787FE4F6D8FD7581100208CB4C
:1008A6008B0E8A0F8910AB0EAA0FA9101208E960E9
:1008B600130510E5107002050F14F91208E9FF126E
:0508C600090280E2229E
:1008CB007F381209107F061209107F011209107F61
:0E08DB000E1209107F8012091012080080F61C
:10080000E4F508F509F50AF50BF50CF50DF508F515
:1008100009E4F50AF50BE4F50CF50D7F80120910DB
:10082000AF09AE081200007F3A120902AF0BAE0A00
:100830001200007F3A120902AF0DAE0C1200000543
:100840000DE50D7002050CC3943CE50C64809480AA
:1008500040C9050BE50B7002050AD3943BE50A6419
:1008600080948040B10509E50970020508D394170A
:08087000E508648094804099C2
:01087800225D
:0E0902008FA0D290C291D292120879C2922296
:0E0910008FA0C290C291D292120879C2922298
:10087900E4FFFE758C4CE4F58AD28C308DFDC28C78
:10088900C28D758C4CE4F58AD28C308DFDC28CC238
:0C0899008D0FBF00010EEF640A4E70D7F7
:0108A5002230
:1008E900BB010689828A83E0225002E722BBFE020D
:0908F900E32289828A83E4932240
:00000001FF
